{
  "contractName": "Voting",
  "abi": [
    {
      "constant": true,
      "inputs": [
        {
          "name": "",
          "type": "uint256"
        }
      ],
      "name": "candidates",
      "outputs": [
        {
          "name": "",
          "type": "uint256"
        }
      ],
      "payable": false,
      "stateMutability": "view",
      "type": "function"
    },
    {
      "constant": false,
      "inputs": [
        {
          "name": "candidateId",
          "type": "uint256"
        }
      ],
      "name": "vote",
      "outputs": [
        {
          "name": "",
          "type": "uint256"
        }
      ],
      "payable": false,
      "stateMutability": "nonpayable",
      "type": "function"
    },
    {
      "constant": false,
      "inputs": [
        {
          "name": "candidateID",
          "type": "uint256"
        }
      ],
      "name": "getVotes",
      "outputs": [
        {
          "name": "",
          "type": "uint256"
        }
      ],
      "payable": false,
      "stateMutability": "nonpayable",
      "type": "function"
    },
    {
      "constant": true,
      "inputs": [],
      "name": "getcandidates",
      "outputs": [
        {
          "name": "",
          "type": "uint256[16]"
        }
      ],
      "payable": false,
      "stateMutability": "view",
      "type": "function"
    }
  ],
  "bytecode": "0x608060405234801561001057600080fd5b506102ad806100206000396000f300608060405260043610610062576000357c0100000000000000000000000000000000000000000000000000000000900463ffffffff1680630121b93f146100675780633477ee2e146100a857806336f56b12146100e9578063ff9810991461013c575b600080fd5b34801561007357600080fd5b506100926004803603810190808035906020019092919050505061017d565b6040518082815260200191505060405180910390f35b3480156100b457600080fd5b506100d3600480360381019080803590602001909291905050506101c2565b6040518082815260200191505060405180910390f35b3480156100f557600080fd5b506100fe6101dc565b6040518082601060200280838360005b8381101561012957808201518184015260208101905061010e565b5050505090500191505060405180910390f35b34801561014857600080fd5b5061016760048036038101908080359060200190929190505050610227565b6040518082815260200191505060405180910390f35b60008082101580156101905750600f8211155b151561019b57600080fd5b60016000836010811015156101ac57fe5b0160008282540192505081905550819050919050565b6000816010811015156101d157fe5b016000915090505481565b6101e461025d565b600060108060200260405190810160405280929190826010801561021d576020028201915b815481526020019060010190808311610209575b5050505050905090565b600080821015801561023a5750600f8211155b151561024557600080fd5b60008260108110151561025457fe5b01549050919050565b610200604051908101604052806010906020820280388339808201915050905050905600a165627a7a72305820df6aea3b58804801fa1a0c9ac9c5af3d4d21b51e1aa4c7a0ef1eed9f614ac08d0029",
  "source": "pragma solidity ^0.4.17;\n\ncontract Voting {\n\tuint[16] public candidates;\n\n\t// Voting on candidate\n\tfunction vote(uint candidateId) public returns (uint) {\n\t\trequire(candidateId >= 0 && candidateId <= 15);\n\t\tcandidates[candidateId] += 1;\n\n\n\n\t\treturn candidateId;\n\t}\n\n\tfunction getVotes(uint candidateID) public returns (uint) {\n\t\trequire(candidateID >= 0 && candidateID <= 15);\n\t\treturn candidates[candidateID];\n\t}\n\n\n\t// Retrieving the candidates\n\tfunction getcandidates() public view returns (uint[16]) {\n  \t\treturn candidates;\n\t}\n\n}\n\n",
  "sourcePath": "/Users/emilykpitts/pet-shop-tutorial/contracts/Voting.sol",
  "compiler": {
    "name": "solc",
    "version": "0.4.24+commit.e67f0147.Emscripten.clang"
  },
  "schemaVersion": "2.0.1",
  "updatedAt": "2018-09-29T06:53:54.483Z"
}