{
  "contractName": "Voting",
  "abi": [
    {
      "constant": true,
      "inputs": [
        {
          "name": "",
          "type": "uint256"
        }
      ],
      "name": "candidates",
      "outputs": [
        {
          "name": "",
          "type": "uint256"
        }
      ],
      "payable": false,
      "stateMutability": "view",
      "type": "function"
    },
    {
      "constant": false,
      "inputs": [
        {
          "name": "candidateId",
          "type": "uint256"
        }
      ],
      "name": "vote",
      "outputs": [
        {
          "name": "",
          "type": "uint256"
        }
      ],
      "payable": false,
      "stateMutability": "nonpayable",
      "type": "function"
    },
    {
      "constant": false,
      "inputs": [
        {
          "name": "candidateID",
          "type": "uint256"
        }
      ],
      "name": "getVotes",
      "outputs": [
        {
          "name": "",
          "type": "uint256"
        }
      ],
      "payable": false,
      "stateMutability": "nonpayable",
      "type": "function"
    },
    {
      "constant": true,
      "inputs": [],
      "name": "getCandidates",
      "outputs": [
        {
          "name": "",
          "type": "uint256[16]"
        }
      ],
      "payable": false,
      "stateMutability": "view",
      "type": "function"
    }
  ],
  "bytecode": "0x608060405234801561001057600080fd5b506102ad806100206000396000f300608060405260043610610062576000357c0100000000000000000000000000000000000000000000000000000000900463ffffffff1680630121b93f1461006757806306a49fce146100a85780633477ee2e146100fb578063ff9810991461013c575b600080fd5b34801561007357600080fd5b506100926004803603810190808035906020019092919050505061017d565b6040518082815260200191505060405180910390f35b3480156100b457600080fd5b506100bd6101c2565b6040518082601060200280838360005b838110156100e85780820151818401526020810190506100cd565b5050505090500191505060405180910390f35b34801561010757600080fd5b506101266004803603810190808035906020019092919050505061020d565b6040518082815260200191505060405180910390f35b34801561014857600080fd5b5061016760048036038101908080359060200190929190505050610227565b6040518082815260200191505060405180910390f35b60008082101580156101905750600f8211155b151561019b57600080fd5b60016000836010811015156101ac57fe5b0160008282540192505081905550819050919050565b6101ca61025d565b6000601080602002604051908101604052809291908260108015610203576020028201915b8154815260200190600101908083116101ef575b5050505050905090565b60008160108110151561021c57fe5b016000915090505481565b600080821015801561023a5750600f8211155b151561024557600080fd5b60008260108110151561025457fe5b01549050919050565b610200604051908101604052806010906020820280388339808201915050905050905600a165627a7a723058203221912d02784bf09f4ed4ab44754de057014ea446f37f5aec5157e25fc605500029",
  "source": "pragma solidity ^0.4.17;\n\ncontract Voting {\n\tuint[16] public candidates;\n\n\t// Voting on candidate\n\tfunction vote(uint candidateId) public returns (uint) {\n\t\trequire(candidateId >= 0 && candidateId <= 15);\n\t\tcandidates[candidateId] += 1;\n\n\n\n\t\treturn candidateId;\n\t}\n\n\tfunction getVotes(uint candidateID) public returns (uint) {\n\t\trequire(candidateID >= 0 && candidateID <= 15);\n\t\treturn candidates[candidateID];\n\t}\n\n\n\t// Retrieving the candidates\n\tfunction getCandidates() public view returns (uint[16]) {\n  \t\treturn candidates;\n\t}\n\n}\n",
  "sourcePath": "/Users/emmakennelly/hack-a-thing-2-decentralizedvoting/contracts/Voting.sol",
  "compiler": {
    "name": "solc",
    "version": "0.4.24+commit.e67f0147.Emscripten.clang"
  },
  "schemaVersion": "2.0.1",
  "updatedAt": "2018-09-29T07:14:42.661Z"
}